:020000040800F2
:10000000680600208901000891010008930100089A
:100010009501000897010008990100080000000000
:100020000000000000000000000000009B0100082C
:100030009D010008000000009F0100086D030008FA
:10004000A3010008A3010008A3010008A301000800
:10005000A3010008A3010008A3010008A3010008F0
:10006000A3010008A3010008A3010008A3010008E0
:10007000A3010008A3010008A3010008A3010008D0
:10008000A3010008A3010008A3010008A3010008C0
:10009000A3010008A3010008A3010008A3010008B0
:1000A000A3010008A3010008A3010008A3010008A0
:1000B000A3010008A3010008A3010008A301000890
:1000C000A3010008A3010008A3010008A301000880
:1000D000A3010008A3010008A3010008A301000870
:1000E000A3010008A3010008A301000800F002F822
:1000F00000F03AF80AA090E8000C82448344AAF188
:100100000107DA4501D100F02FF8AFF2090EBAE885
:100110000F0013F0010F18BFFB1A43F0010318473B
:10012000E402000004030000103A24BF78C878C13C
:10013000FAD8520724BF30C830C144BF04680C60ED
:10014000704700000023002400250026103A28BF35
:1001500078C1FBD8520728BF30C148BF0B60704739
:100160001FB51FBD10B510BD00F031F81146FFF7E7
:10017000F7FF00F03DF900F04FF803B4FFF7F2FF8E
:1001800003BC00F057F800000948804709480047C1
:10019000FEE7FEE7FEE7FEE7FEE7FEE7FEE7FEE737
:1001A000FEE7FEE704480549054A064B7047000094
:1001B0009D030008ED00000868000020680600208C
:1001C000680200206802002070477047704775463B
:1001D00000F02CF8AE4605006946534620F00700B3
:1001E000854618B020B5FFF7DDFFBDE820404FF091
:1001F00000064FF000074FF000084FF0000B21F011
:100200000701AC46ACE8C009ACE8C009ACE8C009DD
:10021000ACE8C0098D46704710B50446AFF30080C6
:100220002046BDE81040FFF7A8BF00000048704717
:100230000800002001491820ABBEFEE7260002009E
:10024000704700000C48806940F015000A49886139
:100250000A48406820F44000084948600846406861
:1002600040F48010486006484FF0E0214861886102
:100270000720086170470000001002400010014094
:10028000FFDC6D0010B500F001F810BD0CB50020CA
:10029000019000903348006840F480303149086094
:1002A00000BF3048006800F4003000900198401C06
:1002B0000190009818B90198B0F5A06FF1D12948C4
:1002C000006800F4003010B10120009001E000202F
:1002D00000900098012843D12348006840F01000A6
:1002E000214908600846006820F0030008600846BD
:1002F000006840F0020008601A48406819494860E8
:100300000846406848600846406840F4806048609D
:100310000846406820F47C1048600846406840F475
:10032000E81048600846006840F08070086000BF30
:100330000C48006800F000700028F9D009484068B7
:1003400020F00300074948600846406840F002007A
:10035000486000BF0348406800F00C000828F9D14D
:100360000CBD000000100240002002400948007847
:10037000012806D140070849086100200549087096
:1003800006E04FF40050044908610120014908705B
:1003900070470000040000200010014010B5114813
:1003A000006840F001000F490860084640680E49A7
:1003B00008400C494860084600680C490840094953
:1003C00008600846006820F48020086008464068FD
:1003D00020F4FE0048604FF41F008860FFF752FFD2
:1003E00010BD0000001002400000FFF8FFFFF6FE05
:1003F000FFF728FF4FF400500149086100BFFEE7F6
:100400000010014024040008000000200800000043
:10041000280100082C0400080800002060060000E5
:0C04200044010008000000000000000083
:040000050800018965
:00000001FF
